:100000000C945E010C9423090C94FC080C94D50804
:100010000C94AE080C9486010C9486010C9487080D
:100020000C9486010C9486010C94C4030C942D044A
:100030000C9486010C9486010C9486010C94860124
:100040000C9486010C9486010C9486010C94860114
:100050000C9486010C9486010C9486010C943D0846
:100060000C9486010C9486010C9486010C948601F4
:100070000C9486010C9486010C9486010C948601E4
:100080000C9486010C9486010C9486010C948601D4
:100090000C9486010C9486010C9486010C948601C4
:1000A0000C9486010C9486010C9486012307260784
:1000B000150719071D074707470747072A072E0790
:1000C000320738073C074707420700407A10F35AC7
:1000D00000A0724E18090010A5D4E80000E8764888
:1000E000170000E40B54020000CA9A3B000000E134
:1000F000F505000080969800000040420F000000C7
:10010000A08601000000102700000000E8030000A6
:1001100000006400000000000A0000000000010070
:10012000000000002C76D888DC674F0823DFC1DF91
:10013000AE59E1B1B796E5E3E453C63AE651997694
:1001400096E8E6C28426EB898C9B62ED407C6FFCCE
:10015000EFBC9C9F40F2BAA56FA5F490055A2AF710
:100160005C936B6CF9676DC11BFCE0E40D47FEF519
:1001700020E6B500D0ED902E030094357705008081
:10018000841E080000204E0A000000C80C333333E0
:10019000330F986E12831141EF8D2114893BE65580
:1001A00016CFFEE6DB18D1844B381BF77C1D901D63
:1001B000A4BBE424203284725E228100C9F124ECC5
:1001C000A1E53D270000000200090F000003040123
:1001D000000C000000000000000000000000000013
:1001E000000000080B0002020201000904000001E7
:1001F000020200000524001001052401010104246D
:1002000002060524060001070581031000400904C9
:100210000100020A00000007050202400000070575
:1002200083024000000403090412010002EF0201EE
:10023000409A230C8000010102030141646166724F
:10024000756974004665617468657220333275346F
:1002500000070605040100080A0B0C0D0900000048
:1002600000250028002B002E003100000000002493
:100270000027002A002D00300004040404040304B5
:100280000502020202040302020202060606060634
:100290000604040202020404040802011040804023
:1002A000102040804080080204018040201002019C
:1002B00010801020404020006F10F90B11241FBE49
:1002C000CFEFDAE0DEBFCDBF12E0A0E0B1E0E8E8BA
:1002D000F0E302C005900D92A43BB107D9F723E0EB
:1002E000A4EBB2E001C01D92AF35B207E1F711E017
:1002F000CDE5D1E004C02197FE010E942A16CC353D
:10030000D107C9F70E94FD0B0C9437180C9400001C
:100310004091C0025091C1022091BE023091BF02B3
:1003200042175307B4F49091E8009570E1F390916F
:10033000E80092FD19C08093F1008091C002909175
:10034000C10201968F739927892B19F48EEF809340
:10035000E8008091C0029091C10201969093C10281
:100360008093C00281E0089580E00895DF92EF92CB
:10037000FF920F931F93CF93DF93D82E8A017B01B7
:10038000E40EF51EEB01CE15DF0571F0D7FE03C0BC
:10039000FE01849101C088810E948801219681110B
:1003A000F2CF8FEF9FEF01C0C801DF91CF911F9176
:1003B0000F91FF90EF90DF900895CF92DF92EF9230
:1003C000FF920F931F93CF93DF936C017A018B0100
:1003D000C0E0D0E0CE15DF0589F0D8016D918D0128
:1003E000D601ED91FC910190F081E02DC6010995B7
:1003F000892B11F47E0102C02196ECCFC701DF9159
:10040000CF911F910F91FF90EF90DF90CF900895C3
:10041000CF93DF931F92CDB7DEB76983DC01ED91F7
:10042000FC910280F381E02D41E050E0BE016F5F5E
:100430007F4F09950F90DF91CF91089583E08093CE
:10044000E9008091F200882319F08AE38093E800A4
:100450000895FC018485958597FD0BC09FB7F8949E
:1004600082E08093E9008091F2009FBF90E00196C6
:1004700008959FB7F89482E08093E9008091F2009C
:100480009FBF90E0089508950895CF93DF931F9242
:10049000CDB7DEB76983DC01ED91FC910280F38179
:1004A000E02D41E050E0BE016F5F7F4F09950F9056
:1004B000DF91CF910895089580E090E008950F9323
:1004C0001F93CF93DF93EC0188819981009729F0E6
:1004D0002A813B812617370788F48B016F5F7F4F96
:1004E0000E945D17009761F0998388831B830A83BC
:1004F0002C813D81232B11F4FC01108281E001C08D
:1005000080E0DF91CF911F910F910895CF93DF93FA
:10051000EC0188819981009711F00E94C51619821B
:1005200018821D821C821B821A82DF91CF9108954E
:10053000EF92FF920F931F93CF93DF93EC017B0118
:100540008A01BA010E945F02811104C0CE010E949B
:10055000860207C01D830C83B701888199810E94A0
:100560003018CE01DF91CF911F910F91FF90EF9046
:1005700008950F931F93CF93DF931F92CDB7DEB7EC
:1005800082E0898342E450E063EE71E080E80E94FB
:10059000B6010E94A80BDC0112960D911C911397D5
:1005A0000115110569F0D801ED91FC910280F381EC
:1005B000E02DBE016F5F7F4FC801099597FF07C00F
:1005C00089810F90DF91CF911F910F910895F801CC
:1005D00000851185E5CF0E94970B90E008950F9359
:1005E0001F93CF93DF931F92CDB7DEB78C01FC0131
:1005F0008485958597FF0EC0CE0101960E946E0BF3
:10060000019719F4298130E002C02FEF3FEFF80184
:1006100035872487F801848595850F90DF91CF91E8
:100620001F910F910895CF93DF931F92CDB7DEB73F
:10063000FC018485958597FD05C02FEF3FEF358739
:1006400024870BC0CE0101960E946E0B019719F40E
:10065000898190E002C08FEF9FEF0F90DF91CF91E3
:100660000895EF92FF920F931F93CF93DF93EC01C6
:10067000FB0184819581E080F1800C811D81E11472
:10068000F104B1F00097B9F0080F191FB801CE01BD
:100690000E945F02882361F0288139818C819D81CD
:1006A000B701820F931F0E9430181D830C8303C073
:1006B000CE010E948602CE01DF91CF911F910F9152
:1006C000FF90EF900895CF93DF93EC0161157105D2
:1006D00059F0FB0101900020E9F73197AF01461B6B
:1006E000570B0E94980202C00E948602CE01DF9141
:1006F000CF910895FC01808191810C94C516EF92F1
:10070000FF920F931F93CF93DF93CDB7DEB7A197DF
:100710000FB6F894DEBF0FBECDBF7C01CB01BA018E
:10072000F70111821082138212821582148242E034
:10073000420F8E010F5F1F4F0E94AD10BC01C70119
:100740000E946303A1960FB6F894DEBF0FBECDBF23
:10075000DF91CF911F910F91FF90EF900895FC01D1
:100760001182108213821282158214826115710522
:1007700051F0FB0101900020E9F73197AF01461BD2
:10078000570B0C94980208951F920F920FB60F9278
:1007900011248F939F938091E1009091E100937FCA
:1007A0009093E10083FF0FC01092E90091E09093D5
:1007B000EB001092EC0092E39093ED001092DC02BB
:1007C00098E09093F00082FF1CC093E09093E900C2
:1007D0009091F200992319F09AE39093E800909198
:1007E000C202992329F09091C20291509093C202C3
:1007F0009091DB02992329F09091DB029150909324
:10080000DB0284FF10C08091E2008E7E81608093C5
:10081000E2008091E1008F7E8093E1008091C4022C
:100820008E7E806111C080FF11C08091E2008E7EBB
:1008300080618093E2008091E1008E7E8093E100F0
:100840008091C4028E7E81608093C4029F918F91BB
:100850000F900FBE0F901F9018951F920F920FB61A
:100860000F921124CF92DF92EF92FF920F931F937A
:100870002F933F934F935F936F937F938F939F93A8
:10088000AF93BF93EF93FF93CF93DF93CDB7DEB7D3
:100890006C97DEBFCDBF1092E9008091E80083FF26
:1008A000FFC1FE017596DE2ECF2E88E08E0F8E17CB
:1008B00029F09091F10090833196F9CF84E68093EE
:1008C000DB0282EF8093E8008D8987FF05C090915D
:1008D000E80090FFFCCF03C09EEF9093E800982FB4
:1008E000907609F0C5C09E892F89188D91110CC092
:1008F000803829F48091C5028093F10002C01092E3
:10090000F1001092F1004FC1422F50E0512B913075
:1009100051F4811148C14130510509F044C1809121
:10092000C5028D7F0BC0933061F481113CC1413011
:10093000510509F038C18091C50282608093C502DB
:1009400032C1953041F48091E80080FFFCCF2068EF
:100950002093E30028C1963009F05EC0EB8CFC8C3C
:100960001092E9001092C1021092C002123091F56B
:100970001092BF021092BE020E94B90299E0BE011D
:100980006F5F7F4FDB01E92F1D92EA95E9F79983AD
:100990001A8391E09E8390EA98879AEF9987209135
:1009A000C0023091C102275F3F4F3C832B838D8370
:1009B0001092E9001092C1021092C002F092BF02A0
:1009C000E092BE0249E050E080E00E94B6010E9441
:1009D000B902E9C0F092BF02E092BE020E94A80BE9
:1009E000DC011296ED90FC901397E114F10409F4E8
:1009F000C7C0D701ED91FC910480F581E02D6D2DEC
:100A00007C2DC7010995009719F00CF0CCC0CFC020
:100A1000F701E084F184E9CF973009F4C8C0983039
:100A200021F481E08093F100BEC0993009F0BBC091
:100A3000837009F0BCC0E1E2F1E081E021E036E33F
:100A40009081992361F08093E9002093EB009191CC
:100A50009093EC003093ED008F5F873089F78EE73D
:100A60008093EA001092EA008F898093DC029BC099
:100A70008B8D9C8D1092E9001092C1021092C002E1
:100A80009093BF028093BE02898D81115FC08E89D1
:100A90009D89913A59F4813209F089C047E050E0CC
:100AA00064E071E080E00E94B6017DC0913209F0FF
:100AB0007EC0833289F4888D90E0982F88272F8913
:100AC000822BA0E0B0E08093000190930101A093FD
:100AD0000201B093030167C08032B1F48091E80055
:100AE00082FFFCCFE4E0F1E087E08E0F8E1729F063
:100AF0009091F10090833196F9CF84E68093DB02E8
:100B00008BEF8093E80006C0823209F04CC08F89D9
:100B100080930B018091C302882319F0EEEFFAE075
:100B200002C0E0E0F8E08091040190910501A091FD
:100B30000601B0910701803B9440A105B10509F081
:100B40007AC080910B0180FF92C075C00E94A80BF3
:100B5000DC0112960D911C9113970115110539F1C5
:100B6000D801ED91FC910190F081E02D6D2D7C2D4F
:100B7000C8010995811117C0F80100851185EDCFD5
:100B8000113009F44EC0133091F48F89882309F491
:100B900045C0823081F440E86CE084E492E00E9439
:100BA000BC0B882321F08EEF8093E80079C081E2AE
:100BB0008093EB0075C0813029F440E868E08BE356
:100BC00092E0EDCF833099F70E94A80BDC011296DA
:100BD000ED90FC9013978E010F5F1F4F6801E11499
:100BE000F10479F0D701ED91FC910680F781E02DB9
:100BF000B801C7010995080F111DF701E084F184C0
:100C0000EECFD8011C92F60101900020E9F7319750
:100C1000BF016C197D0940E0C601C1CF65E272E0F9
:100C200002C069E272E06115710509F2FB014491AD
:100C300050E080E838CF0FB6F894A8958091600016
:100C4000886180936000109260000FBEA895EE3F0F
:100C50002AE0F20739F08091FE0A9091FF0A918311
:100C60008083A1CF1092FF0A1092FE0A9CCFEE3F24
:100C70008AE0F80731F0808191819093FF0A809398
:100C8000FE0A87E797E7918380839BE088E10FB6B0
:100C9000F894A895809360000FBE9093600083CF76
:100CA0006C960FB6F894DEBF0FBECDBFDF91CF912B
:100CB000FF91EF91BF91AF919F918F917F916F9134
:100CC0005F914F913F912F911F910F91FF90EF9066
:100CD000DF90CF900F900FBE0F901F901895611569
:100CE000710579F0FB0101900020E9F73197AF0120
:100CF000461B570BDC01ED91FC910280F381E02D46
:100D0000099480E090E008954F925F926F927F92F5
:100D1000EF92FF920F931F93CF93DF93CDB7DEB780
:100D2000A1970FB6F894DEBF0FBECDBF7C01FA01CC
:100D3000CB0119A2223008F42AE08E010F5D1F4F6B
:100D4000422E512C612C712CBF01A30192010E94F3
:100D5000E414F901CA01015011096A3014F4605D0C
:100D600001C0695CD8016C93232B242B252B61F7E0
:100D7000B801C7010E946F06A1960FB6F894DEBFB6
:100D80000FBECDBFDF91CF911F910F91FF90EF90DC
:100D90007F906F905F904F900895CF92DF92EF9287
:100DA000FF920F931F93CF93DF93EC016A017B01B6
:100DB000E881F9810190F081E02D6DE209958C01C7
:100DC00044275527BA014C195D096E097F092AE0AD
:100DD000CE010E948406800F911FDF91CF911F9159
:100DE0000F91FF90EF90DF90CF9008950C946F06D5
:100DF000362F90E0FC01EC53FE4F4491FC01E85685
:100E0000FD4F2491FC01E758FD4F8491882309F49C
:100E100051C04423E1F150E0FA013197EF30F10580
:100E2000B0F5EA5AFF4F0C942A16909180009F77F4
:100E300007C0909180009F7D03C090918000977FB4
:100E40009093800024C094B59F7702C094B59F7D95
:100E500094BD1DC0909190009F7707C09091900025
:100E60009F7D03C090919000977F909390000FC05A
:100E70009091C0009F7703C09091C0009F7D909398
:100E8000C00005C09091C200977F9093C200E82FE8
:100E9000F0E0EE0FFF1FE35AFD4FA591B4918FB71D
:100EA000F894EC91311103C020952E2301C02E2B14
:100EB0002C938FBF08953FB7F8948091BA02909118
:100EC000BB02A091BC02B091BD0226B5A89B05C093
:100ED0002F3F19F00196A11DB11D3FBFBA2FA92FB9
:100EE000982F8827820F911DA11DB11DBC01CD0136
:100EF00043E0660F771F881F991F4A95D1F7089521
:100F00008F929F92AF92BF92CF92DF92EF92FF9219
:100F10006B017C010E945B074B015C01C114D10491
:100F2000E104F104F1F00E945B07DC01CB018819B8
:100F30009909AA09BB09883E9340A105B10570F340
:100F400021E0C21AD108E108F10888EE880E83E09A
:100F5000981EA11CB11CC114D104E104F10419F7BD
:100F6000DDCFFF90EF90DF90CF90BF90AF909F903C
:100F70008F9008958F929F92AF92BF92CF92DF92FF
:100F8000EF92FF920F931F93CF93DF935C016B015E
:100F90007A0180910B01882309F459C08091DC0209
:100FA000882309F454C08091C40280FF05C0809159
:100FB000E00082608093E000E70110E00AEF83E048
:100FC000882E9AE3992E2097D1F10E94970B8111D8
:100FD00009C00150E1F161E070E080E090E00E9422
:100FE0008007F1CF282F30E0C217D3070CF48C2FE5
:100FF0004FB7F8948092E9009091E80095FF1DC0EA
:10100000282F30E0C21BD30BF601982F915020F00F
:1010100081918093F100FACFC20ED31E112319F0F3
:101020009092E80009C08091E80085FD06C090928A
:10103000E80011E0209709F010E04FBFC4CF111174
:10104000C4CF84E68093C2021E141F0444F081E0E2
:1010500090E0F5019383828380E090E001C0C701B6
:10106000DF91CF911F910F91FF90EF90DF90CF9084
:10107000BF90AF909F908F9008951F920F920FB6E0
:101080000F9211242F933F938F939F93AF93BF930E
:101090008091B6029091B702A091B802B091B902C6
:1010A0003091B50226E0230F2D3720F40296A11DC2
:1010B000B11D05C029E8230F0396A11DB11D209382
:1010C000B5028093B6029093B702A093B802B09392
:1010D000B9028091BA029091BB02A091BC02B0917A
:1010E000BD020196A11DB11D8093BA029093BB026F
:1010F000A093BC02B093BD02BF91AF919F918F911D
:101100003F912F910F900FBE0F901F9018951F9237
:101110000F920FB60F9211242F933F934F935F932B
:101120006F937F938F939F93AF93BF93EF93FF93AF
:10113000E0911401F09115010995FF91EF91BF9194
:10114000AF919F918F917F916F915F914F913F915F
:101150002F910F900FBE0F901F9018951F920F9216
:101160000FB60F9211242F933F934F935F936F937A
:101170007F938F939F93AF93BF93EF93FF93E091F0
:101180001201F09113010995FF91EF91BF91AF9179
:101190009F918F917F916F915F914F913F912F918F
:1011A0000F900FBE0F901F9018951F920F920FB6C1
:1011B0000F9211242F933F934F935F936F937F93DD
:1011C0008F939F93AF93BF93EF93FF93E0911001A1
:1011D000F09111010995FF91EF91BF91AF919F910E
:1011E0008F917F916F915F914F913F912F910F90D0
:1011F0000FBE0F901F9018951F920F920FB60F926F
:1012000011242F933F934F935F936F937F938F930B
:101210009F93AF93BF93EF93FF93E0910E01F091F3
:101220000F010995FF91EF91BF91AF919F918F9120
:101230007F916F915F914F913F912F910F900FBED2
:101240000F901F9018951F920F920FB60F921124B6
:101250002F933F934F935F936F937F938F939F93BE
:10126000AF93BF93EF93FF93E0910C01F0910D01C9
:101270000995FF91EF91BF91AF919F918F917F91D0
:101280006F915F914F913F912F910F900FBE0F90F3
:101290001F901895EF92FF921F93CF93DF931F92A9
:1012A000CDB7DEB77C01162F60E0FC01868549834F
:1012B0000E94F806F701948585859CBD8DBD1EBDF5
:1012C000000049810DB407FEFDCF8EB54EBD000074
:1012D0000DB407FEFDCF1EB561E0F70186850E94C3
:1012E000F806812F0F90DF91CF911F91FF90EF9023
:1012F00008956F7740E00C944A09CF9362E18DE244
:1013000093E00E947909C82F482F62E98DE293E0AB
:101310000E944A09C5FD2DC0109244031092430358
:101320008091450390914603892B11F062E201C040
:1013300063E18DE293E00E947909C82F60E18DE2BC
:1013400093E00E947909482F6DE88DE293E00E94B6
:101350004A09E0914703F0914803309719F08C2F28
:1013600090E0099540E06DE88DE293E0CF910C9418
:101370004A09CF910895EF92FF921F93CF93DF9385
:101380001F92CDB7DEB77C01DC01ED91FC910084AA
:10139000F185E02D0995892B99F06DE0C7010E9438
:1013A0007909482F60E0C70149830E947909182F05
:1013B00049816DE8C7010E944A09812F90E002C06F
:1013C0008FEF9FEF0F90DF91CF911F91FF90EF90E4
:1013D0000895CF93DF93EC01E881F9810084F185D2
:1013E000E02D0995892B59F08E899F8901969F8B55
:1013F0008E8B60E0CE010E94790990E002C08FEFF1
:101400009FEFDF91CF910895CF93DF93EC0163E1DC
:101410000E947909282F30E08E899F89A901481BF5
:10142000590BCA01DF91CF9108958F929F92AF928D
:10143000BF92CF92DF92FF920F931F93CF93DF93D0
:101440001F92CDB7DEB76C01B62E4A0162E27983F6
:101450000E947909F82E90E09C01280D391D7981B0
:101460002F3F310531F028F02FEF30E04901881A85
:10147000990A0B2D172F5801A80CB91C0A151B052A
:1014800041F0F80141918F0160E8C6010E944A09CC
:10149000F5CF482D4F0D62EAC6010E944A09C401EA
:1014A0000F90DF91CF911F910F91FF90DF90CF9020
:1014B000BF90AF909F908F9008950F931F93CF93FD
:1014C000DF93CDB7DEB728970FB6F894DEBF0FBE17
:1014D000CDBF8C0168EA71E0CE0101960E94AF0396
:1014E00068EA71E089E493E00E946303012B09F448
:1014F00085C08DE293E00E94E9098DE293E00E94AD
:10150000040A892B39F18DE293E00E94E9098F8367
:10151000188600914D0310914E030F5F1F4FB801C5
:1015200089E493E00E945F02882339F32091490304
:1015300030914A0380914D0390914E03BE01695F43
:101540007F4F820F931F0E94301810934E03009319
:101550004D03D3CF6091490370914A036115710522
:1015600049F040914D0350914E03CE0101960E94E7
:10157000980204C0CE0101960E94860286E0809304
:10158000B4026AE18DE293E00E947909082F10E02D
:101590006091410370914203072E000C880B990B58
:1015A0000E94CB1324E832EF4EE45EE40E94C413A1
:1015B00087FD03C08DE990E002C084EA90E0081B3B
:1015C000190B1093C7020093C6026091C802709174
:1015D000C9028091CA029091CB0220E030E040E83D
:1015E0005FE30E9416156093C8027093C90280934E
:1015F000CA029093CB0281E08093CC02CE01019687
:101600000E947A0328960FB6F894DEBF0FBECDBFB6
:10161000DF91CF911F910F910895CF93DF93BC017C
:101620008DED92E00E946F06EC0166EA71E08DEDAF
:1016300092E00E946F068C0F9D1FDF91CF9108955D
:1016400090E0FC01E856FD4F2491FC01E758FD4F66
:101650008491882399F090E0880F991FFC01E55947
:10166000FD4FA591B491FC01E35AFD4F85919491F2
:101670008FB7F894EC91E22BEC938FBF0895CF9342
:10168000DF93E091DD02F091DE02DC0114964D91D2
:101690005C9115976D917C910280F381E02D8DED29
:1016A00092E00995EC0166EA71E08DED92E00E940E
:1016B0006F068C0F9D1FDF91CF9108951092460306
:1016C000109245036DE18DE293E00E947909482F65
:1016D0004E7F6DE98DE293E00C944A09FC01809104
:1016E000DC02811103C08FEF9FEF08959FB7F8943C
:1016F00082E08093E9002091F20030E01216130698
:1017000014F421E030E02115310551F084E6809396
:10171000DB028091F10080838091F200882319F030
:101720009FBFC90108958BE68093E800F9CF2FB7DA
:10173000F89483E08093E9009091E800892F80720B
:1017400095FF04C09091F20080E4891B2FBF08959B
:101750008091530381110DC082E080934F0384E098
:1017600080935003109252031092510381E08093B2
:1017700053038FE493E00895CF92DF92EF92FF92AC
:101780000F931F93CF93DF931F92CDB7DEB7182F20
:10179000062FE42E862F880F8E5F99830E94880182
:1017A00083E00E948801F12EC12E9981D92E8C2DC3
:1017B0008F19801798F4F601E7FE02C0849101C0EA
:1017C00080810E948801182F80E00E948801812377
:1017D000FFEFCF1ADF0A8111EACF01C081E00F903D
:1017E000DF91CF911F910F91FF90EF90DF90CF90FD
:1017F000089589E493E00C947A03CF93DF93CDB7F7
:10180000DEB768970FB6F894DEBF0FBECDBF7894F1
:1018100084B5826084BD84B5816084BD85B58260F5
:1018200085BD85B5816085BD80916E0081608093A6
:101830006E0010928100809181008260809381000F
:10184000809181008160809381008091800081601F
:1018500080938000809191008260809391008091BC
:1018600091008160809391008091900081608093CD
:1018700090008091C10084608093C1008091C1007C
:1018800082608093C1008091C10081608093C1001B
:101890008091C30081608093C3008091C00082600A
:1018A0008093C0008091C20081608093C2008091CB
:1018B0007A00846080937A0080917A0082608093BD
:1018C0007A0080917A008E7F80937A0080917A00EE
:1018D000806880937A001092DC021092C502109208
:1018E000C4028091D70081608093D70080EA809302
:1018F000D80089B58F7E89BD89B5826089BD09B45C
:1019000000FEFDCF61E070E080E090E00E94800783
:101910008091D8008F7C80618093D8008091E00016
:10192000807F8093E0008091E1008E7E8093E100D3
:101930008DE08093E200EEEFFFE7859194918B3F7D
:101940009C4D19F481E08093C3028FEF9FEF909339
:10195000EA028093E902E6E5F2E0E49180917B00FF
:10196000E3FB002700F910E045E0000F111F4A9546
:10197000E1F78F7D082B00937B00E770E064E09334
:101980007C0080917A00806480937A0080917A0054
:10199000182F107486FDFACF60917800809179003D
:1019A00070E0782B072E000C880B990B61157105E0
:1019B0008105910511F00E94201168E873E180E033
:1019C00090E00E9480078BE491E00E940D0B88E07C
:1019D00090E090933C0380933B0384E090E09093ED
:1019E0003E0380933D0387E090E090934003809313
:1019F0003F0388E00E94200B80913D030E94200B52
:101A000060E080913D030E94F8066AE070E080E0AB
:101A100090E00E94800761E080913D030E94F806FB
:101A20006AE070E080E090E00E94800761E08091D1
:101A30003B030E94F8060FB7F8948091CD02811104
:101A400024C0EAE8F2E08491E9EAF2E09491E82F18
:101A5000F0E0EE0FFF1FE559FD4FA591B491EC9119
:101A6000E92321F461E081E10E94F80681E10E940E
:101A7000200B8CB580618CBD8CB580648CBD8FE0F3
:101A80000E94200B80E10E94200B8091CD028F5F8D
:101A90008093CD020FBF62E48DE293E00E9479094A
:101AA000823109F0E2C240E861E88DE293E00E94F1
:101AB0004A0980EA96EC909342038093410349EDF2
:101AC00066E88DE293E00E944A0940EA67E88DE209
:101AD00093E00E944A0940E068E88DE293E00E94AA
:101AE0004A0940E06EE88DE293E00E944A0940E036
:101AF0006FE88DE293E00E944A096CE08DE293E08A
:101B00000E947909482F43606CE88DE293E00E94BF
:101B10004A0944E066EA8DE293E00E944A094FE8F0
:101B200069E88DE293E00E944A0941E861E88DE2AC
:101B300093E00E944A0943EC61EB8DE293E00E943E
:101B40004A094AE067EB8DE293E00E944A096EE1A0
:101B50008DE293E00E9479098F70482F40676EE90B
:101B60008DE293E00E944A098DE59AE09093480344
:101B70008093470340E060EC8DE293E00E944A09C5
:101B800080913F0390914003009709F473C2813024
:101B9000910509F471C28230910509F46FC2833056
:101BA000910509F46EC2079769F46AC2133008F010
:101BB00083C2113009F479C28091690083608093F7
:101BC0006900E89A8AE591E00E940D0B64E872E0F2
:101BD0008DED92E00E94F60662E771E08DED92E0F5
:101BE0000E94F60684E892E00E940D0B98E0892E90
:101BF000912CA12CB12C08EE13E020E0E22E20E085
:101C0000F22E0E941B11A50194010E947B14DC019D
:101C1000CB010396A11DB11D8093DA0265E971E045
:101C20008DED92E00E94F6066091D6027091D70287
:101C30008091D8029091D9020E94F415AB01770FE0
:101C4000660B770B77FF05C08DED92E00E94CD0605
:101C500005C02AE08DED92E00E94840666EA71E0FC
:101C60008DED92E00E946F0641E861E88DE293E01D
:101C70000E944A090E945E0B40E06DE88DE293E00D
:101C80000E944A0940E062EA8DE293E00E944A091C
:101C900069EA71E08DE293E00E94F6064091DA0273
:101CA00050E04150510940F44FEF5FEFBA018DE22F
:101CB00093E00E94CD0609C0052E000C660B770B41
:101CC0002AE08DE293E00E94840643E861E88DE219
:101CD00093E00E944A0962E18DE293E00E94790953
:101CE00083FFF9CF48E062E98DE293E00E944A0960
:101CF00020E030E040E85FE36091D6027091D702C7
:101D00008091D8029091D9020E9416156093D60254
:101D10007093D7028093D8029093D9026EEA71E053
:101D20008DED92E00E94F6064091DA0250E04150BB
:101D3000510940F44FEF5FEFBA018DED92E00E9440
:101D4000CD0609C0052E000C660B770B2AE08DED41
:101D500092E00E94840688E692E00E940D0B0E94A9
:101D60005B072B013C016093D2027093D3028093F6
:101D7000D4029093D5028091CE029091CF02A0918F
:101D8000D002B091D10284199509A609B709893EFC
:101D90009340A105B10508F488C00E945E0B45E898
:101DA00061E88DE293E00E944A090E945B0760931C
:101DB000CE027093CF028093D0029093D102809193
:101DC000CC028823C1F21092CC0284E892E00E94F7
:101DD0000D0B8EEB91E00E940D0B6091C80270918B
:101DE000C9028091CA029091CB021C8A1B8A1E8A6A
:101DF0001D8A188E1F8A0E94F415DC01CB014AE06F
:101E0000BE016F5F7F4F0E942911BE016F5F7F4F40
:101E1000CE0143960E9463036AED71E0CE01019604
:101E20000E94AF03BE016D5E7F4FCE0101960E94FE
:101E300031030E943F0BCE0101960E947A03CE012E
:101E400043960E947A038091C6029091C7021C8A31
:101E50001B8A1E8A1D8A188E1F8A4AE0BE016F5F88
:101E60007F4F0E942911BE016F5F7F4FCE014396C5
:101E70000E94630363EF71E0CE0101960E94AF03FD
:101E8000BE016D5E7F4FCE0101960E9431030E941C
:101E90003F0BCE0101960E947A03CE0143960E9429
:101EA0007A0384E892E00E940D0B8091DA02809F11
:101EB000B001819F700D1124072E000C880B990B27
:101EC0000E94800720E030E040EA51E46091D602B1
:101ED0007091D7028091D8029091D9020E94C413C8
:101EE0008111BCC064E872E08DED92E00E94F606BC
:101EF0006AEF71E08DED92E00E94F60684E892E0D0
:101F00000E940D0B8EE092E00E940D0B4091D602D4
:101F10005091D7026091D8027091D90222E0CE018F
:101F200001960E947F0366E172E0CE0143960E9413
:101F3000AF03BE016F5F7F4FCE0143960E94310316
:101F40000E943F0BCE0143960E947A03CE01019678
:101F50000E947A034091C8025091C9026091CA025E
:101F60007091CB0222E0CE0101960E947F036EE2C7
:101F700072E0CE0143960E94AF03BE016F5F7F4FB8
:101F8000CE0143960E9431030E943F0BCE0143963F
:101F90000E947A03CE0101960E947A036091C802E2
:101FA0007091C9028091CA029091CB022091D60211
:101FB0003091D7024091D8025091D9020E948215E7
:101FC000AB01BC0122E0CE0101960E947F0367E4D1
:101FD00072E0CE0143960E94AF03BE016F5F7F4F58
:101FE000CE0143960E9431030E943F0BCE014396DF
:101FF0000E947A03CE0101960E947A038FE492E058
:102000000E940D0B61E772E08DED92E00E94F606F2
:102010001092C8021092C9021092CA021092CB020A
:102020001092D6021092D7021092D8021092D902C2
:1020300060E177E280E090E00E94800764E872E06F
:102040008DED92E00E94F60662E771E08DED92E080
:102050000E94F60684E892E00E940D0BE114F10460
:1020600009F4CFCD0E940000CCCD87E992E00E9418
:102070000D0BFFCF12E005C013E003C011E001C05B
:1020800014E0E12FF0E0EE0FFF1FE45FFE4F8DE75D
:1020900099E091838083123009F088CD80916900A6
:1020A000806380936900EA9A8DCD809169008C608D
:1020B00080936900E99A86CD133039F480916900E4
:1020C000806C80936900EB9A7DCD143009F074CD5B
:1020D00080916A00806380936A00EE9A73CDEDED83
:1020E000F2E01382128288EE93E0A0E0B0E08483F5
:1020F0009583A683B7838BE291E0918380838FEFF2
:102100009FEF95878487EDE2F3E0138212828DE3DF
:1021100091E09183808380E5848781E085878AE0F0
:1021200090E09787868789E090E0918B808B82E0B2
:1021300090E0938B828B158A148A178A168A118EE7
:10214000108E138E128E148215821682178268EA00
:1021500071E089E493E00C94AF03EF920F931F9327
:10216000CF93DF93E80147FD02C034E001C034E1C2
:10217000E42F440FFF0BF7FF03C0F195E195F10940
:10218000E32E022F2E2FAE010E944E11CE01DF91C1
:10219000CF911F910F91EF9008958F929F92AF92E0
:1021A000BF92CF92DF92EF92FF92CF93DF93EC0139
:1021B000688179818A819B8161157105810591050D
:1021C00021F464E279ED8BE597E02DE133EF41E016
:1021D00050E00E947B1449015A019B01AC01A7EA1F
:1021E000B1E40E949A146B017C01ACEEB4EFA5013E
:1021F00094010E94A814DC01CB018C0D9D1DAE1D25
:10220000BF1DB7FF03C00197A109B0488883998318
:10221000AA83BB83BC01CD019F77DF91CF91FF9053
:10222000EF90DF90CF90BF90AF909F908F900895E8
:102230000E94CD10089586E191E00E94CD1008958E
:102240006093160170931701809318019093190100
:102250000895BB274A3031F4992322F4BDE29095CA
:1022600081959F4F0C943511BB27FB015527AA2759
:10227000880F991FAA1FA41710F0A41B8395505113
:10228000B9F7A05DAA3308F0A95DA193009779F78B
:10229000B111B1931192CB010C94B4134F925F9290
:1022A0006F927F929F92AF92BF92CF92DF92EF9206
:1022B000FF920F931F93CF93DF93CDB7DEB729978C
:1022C0000FB6F894DEBF0FBECDBF6A01122FB02E3D
:1022D0002BE3201720F0FF24F394F00E02C0BCE3A0
:1022E000FB2E0F2D27E0AE014F5F5F4F0E94DC12E7
:1022F000AC018981982F9970913031F0E1FC06C0D2
:10230000E0FE06C090E205C09DE203C09BE201C072
:1023100090E0EE2DE07183FF3CC0911102C083E09C
:1023200001C084E0811718F4212F281B01C020E090
:10233000E1110BC0F601822F30E2882319F03193AE
:102340008150FBCFC20ED11C20E0992329F0D60189
:102350009C93F60131966F01C6010396E2FE0AC016
:102360003EE4D6013C9341E411964C9311971296AA
:102370003C9306C03EE6F601308341E6418332835A
:10238000FC01322F40E2332309F442C04193315023
:10239000FACF82FF44C0911102C083E001C084E003
:1023A000811718F4212F281B01C020E0E1110BC078
:1023B000F601822F30E2882319F031938150FBCF50
:1023C000C20ED11C20E0992329F0D6019C93F6017E
:1023D00031966F01C6010396E2FE0BC039E4D601C7
:1023E0003C933EE411963C93119736E412963C934D
:1023F00007C039E6F60130833EE6318336E63283A4
:10240000FC01322F40E2332319F041933150FBCFCE
:10241000FC01E20FF11D10828EEF9FEFB7C0F1E0DB
:10242000911101C0F0E06F2F70E01416150624F42E
:102430009A012F5F3F4F02C021E030E0260F371F87
:10244000BB2029F06B2D70E06F5F7F4F02C060E012
:1024500070E0260F371F612F70E0261737071CF436
:10246000121B212F01C020E03E2D387159F4D601F6
:10247000322F60E2332319F06D933150FBCFC20E3F
:10248000D11C20E0FF2331F0D6019C93B6016F5F91
:102490007F4F6B01E1110BC0F601922F30E39923BE
:1024A00019F031939150FBCFC20ED11C20E09F2D2B
:1024B000940F3A81782F7071A72E84FF03C03133B7
:1024C00009F49150191624F4993018F098E001C0DD
:1024D00091E0E42F852F57FF02C0E0E080E06E2FEF
:1024E000782FE0E0F0E0AEE29A2E3A01691A710826
:1024F0002A01461A570A0B2D10E011950195110972
:102500006F3F8FEF780729F4D6019C92C6010196A0
:102510006C014617570784F0661677066CF47F0146
:10252000E40CF51CA1E0B0E0AC0FBD1FEA0EFB1EF1
:10253000D7011196BC9002C090E3B92E6150710989
:102540003196C60101967C016017710724F0D6010F
:10255000BC926C01D5CF6417750741F4363320F473
:10256000353321F4A11002C081E3B82EF601B08208
:10257000F701822F90E2882319F091938150FBCFCD
:10258000F701E20FF11D108280E090E029960FB66E
:10259000F894DEBF0FBECDBFDF91CF911F910F9199
:1025A000FF90EF90DF90CF90BF90AF909F907F9083
:1025B0006F905F904F900895283008F027E0332700
:1025C000DA01990F311D87FD916000966105710553
:1025D00039F432602E5F3D9330E32A95E1F7089598
:1025E0009F3F30F080387105610509F03C5F3C5F2A
:1025F0003D93913008F08068911DDF93CF931F9336
:102600000F93FF92EF92192F987F9695E92F969549
:102610009695E90FFF27EC5DFE4F99273327EE24AF
:10262000FF24A701E70105900894079428F4360FCA
:10263000E71EF81E491F511D660F771F881F991F3F
:102640000694A1F70590079428F4E70EF81E491F99
:10265000561FC11D770F881F991F661F0694A1F78B
:102660000590079428F4F80E491F561FC71FD11D67
:10267000880F991F661F771F0694A1F7059007948E
:1026800020F4490F561FC71FD81F990F661F771FC9
:10269000881F0694A9F784911095177041F0D6957C
:1026A000C79557954795F794E7941A95C1F7EAECC3
:1026B000F0E068941590159135916591959105908C
:1026C0007FE27395E118F10A430B560BC90BD00951
:1026D000C0F7E10CF11E431F561FC91FD01D7EF429
:1026E000703311F48A95E6CFE894015030F0080F6A
:1026F0000AF40027021708F4202F2395022F7A33BB
:1027000028F079E37D932A95E9F710C07D932A9507
:1027100089F6069497956795379517951794E1185C
:10272000F10A430B560BC90BD00998F023957E9103
:1027300073957A3308F070E37C932013B8F77E9199
:1027400070617D9330F0839571E37D9370E32A95FA
:10275000E1F71124EF90FF900F911F91CF91DF913E
:10276000992787FD90950895DC01FC01672F7191F1
:102770007723E1F7329704C07C916D937083629167
:10278000AE17BF07C8F308950E94061408F481E04D
:102790000895E89409C097FB3EF490958095709554
:1027A00061957F4F8F4F9F4F9923A9F0F92F96E99D
:1027B000BB279395F695879577956795B795F11112
:1027C000F8CFFAF4BB0F11F460FF1BC06F5F7F4FAF
:1027D0008F4F9F4F16C0882311F096E911C07723C1
:1027E00021F09EE8872F762F05C0662371F096E8CA
:1027F000862F70E060E02AF09A95660F771F881F99
:10280000DAF7880F9695879597F90895990F00083C
:10281000550FAA0BE0E8FEEF16161706E807F907B2
:10282000C0F012161306E407F50798F0621B730B4D
:10283000840B950B39F40A2661F0232B242B252BCE
:1028400021F408950A2609F4A140A6958FEF811D71
:10285000811D089597F99F6780E870E060E0089512
:102860009FEF80EC089500240A94161617061806A8
:102870000906089500240A94121613061406050684
:102880000895092E0394000C11F4882352F0BB0F15
:1028900040F4BF2B11F460FF04C06F5F7F4F8F4F78
:1028A0009F4F089557FD9058440F551F59F05F3FB3
:1028B00071F04795880F97FB991F61F09F3F79F062
:1028C00087950895121613061406551FF2CF4695E4
:1028D000F1DF08C0161617061806991FF1CF869566
:1028E0007105610508940895E894BB27662777274A
:1028F000CB0197F90895052E97FB1EF400940E94D2
:10290000921457FD07D00E94E41407FC03D04EF444
:102910000C94921450954095309521953F4F4F4F10
:102920005F4F089590958095709561957F4F8F4F7B
:102930009F4F08950E940615A59F900DB49F900D7E
:10294000A49F800D911D11240895B7FF0C949A1433
:102950000E949A14821B930B08952F923F924F92DC
:102960005F926F927F928F929F92AF92BF92CF921F
:10297000DF92EF92FF920F931F93CF93DF93CDB728
:10298000DEB7CA1BDB0B0FB6F894DEBF0FBECDBFA0
:1029900009942A88398848885F846E847D848C8471
:1029A0009B84AA84B984C884DF80EE80FD800C817A
:1029B0001B81AA81B981CE0FD11D0FB6F894DEBF5D
:1029C0000FBECDBFED010895A1E21A2EAA1BBB1BBD
:1029D000FD010DC0AA1FBB1FEE1FFF1FA217B307EB
:1029E000E407F50720F0A21BB30BE40BF50B661F01
:1029F000771F881F991F1A9469F7609570958095C5
:102A000090959B01AC01BD01CF010895A29FB0013B
:102A1000B39FC001A39F700D811D1124911DB29F12
:102A2000700D811D1124911D08955058BB27AA27B0
:102A30000E942D150C9441140E94331438F00E940A
:102A40003A1420F039F49F3F19F426F40C94301412
:102A50000EF4E095E7FB0C942A14E92F0E9452141F
:102A600058F3BA17620773078407950720F079F4C3
:102A7000A6F50C9474140EF4E0950B2EBA2FA02D2D
:102A80000B01B90190010C01CA01A0011124FF271B
:102A9000591B99F0593F50F4503E68F11A16F04016
:102AA000A22F232F342F4427585FF3CF4695379515
:102AB0002795A795F0405395C9F77EF41F16BA0BDA
:102AC000620B730B840BBAF09150A1F0FF0FBB1F88
:102AD000661F771F881FC2F70EC0BA0F621F731FD1
:102AE000841F48F4879577956795B795F7959E3F2E
:102AF00008F0B0CF9395880F08F09927EE0F9795BF
:102B0000879508950E9496150C9441140E943A14DA
:102B100058F00E94331440F029F45F3F29F00C94E0
:102B20002A1451110C9475140C9430140E945214F0
:102B300068F39923B1F3552391F3951B550BBB27EC
:102B4000AA2762177307840738F09F5F5F4F220F31
:102B5000331F441FAA1FA9F335D00E2E3AF0E0E828
:102B600032D091505040E695001CCAF72BD0FE2F72
:102B700029D0660F771F881FBB1F26173707480706
:102B8000AB07B0E809F0BB0B802DBF01FF279358BE
:102B90005F4F3AF09E3F510578F00C942A140C9444
:102BA00075145F3FE4F3983ED4F386957795679567
:102BB000B795F7959F5FC9F7880F911D96958795F3
:102BC00097F90895E1E0660F771F881FBB1F621712
:102BD00073078407BA0720F0621B730B840BBA0BD0
:102BE000EE1F88F7E09508950E94FB156894B111D7
:102BF0000C94751408950E945A1488F09F5798F009
:102C0000B92F9927B751B0F0E1F0660F771F881FF1
:102C1000991F1AF0BA95C9F714C0B13091F00E940B
:102C20007414B1E008950C947414672F782F8827DA
:102C3000B85F39F0B93FCCF3869577956795B39532
:102C4000D9F73EF490958095709561957F4F8F4FA1
:102C50009F4F0895EE0FFF1F0590F491E02D09940A
:102C6000CF93DF938230910510F482E090E0E09101
:102C70005D03F0915E0320E030E0C0E0D0E03097EB
:102C800011F14081518148175907C0F04817590781
:102C900061F482819381209719F09B838A832BC0F2
:102CA00090935E0380935D0326C02115310519F0D2
:102CB0004217530718F49A01BE01DF01EF010280A9
:102CC000F381E02DDCCF2115310509F1281B390BEB
:102CD0002430310590F412968D919C9113976115D3
:102CE000710521F0FB019383828304C090935E03FE
:102CF00080935D03FD01329644C0FD01E20FF31F96
:102D000081939193225031092D933C933AC02091A5
:102D10005B0330915C03232B41F420911C01309123
:102D20001D0130935C0320935B0320911A013091C5
:102D30001B012115310541F42DB73EB740911E010D
:102D400050911F01241B350BE0915B03F0915C0354
:102D5000E217F307A0F42E1B3F0B2817390778F072
:102D6000AC014E5F5F4F2417350748F04E0F5F1FD1
:102D700050935C0340935B038193919302C0E0E026
:102D8000F0E0CF01DF91CF9108950F931F93CF9380
:102D9000DF93009709F48CC0FC01329713821282F2
:102DA00000915D0310915E030115110581F42081EE
:102DB0003181820F931F20915B0330915C032817B0
:102DC000390779F5F0935C03E0935B0371C0D80198
:102DD00040E050E0AE17BF0750F412962D913C91A1
:102DE0001397AD012115310509F1D901F3CF9D01EB
:102DF000DA013383228360817181860F971F8217E6
:102E0000930769F4EC0128813981260F371F2E5F63
:102E10003F4F318320838A819B8193838283452B1B
:102E200029F4F0935E03E0935D0342C01396FC9394
:102E3000EE931297ED01499159919E01240F351F90
:102E4000E217F30771F480819181840F951F029638
:102E500011969C938E938281938113969C938E936B
:102E60001297E0E0F0E0D80112968D919C911397B3
:102E7000009719F0F8018C01F6CF8D919C91980183
:102E80002E5F3F4F820F931F20915B0330915C03B5
:102E90002817390769F4309729F410925E031092CD
:102EA0005D0302C01382128210935C0300935B03E4
:102EB000DF91CF911F910F910895A0E0B0E0E3E67C
:102EC000F7E10C94B114EC01009721F4CB010E94BE
:102ED0003016B8C0FC01E60FF71F9C0122503109E3
:102EE000E217F30708F4ACC0D9010D911C911197BA
:102EF00006171707B0F00530110508F49FC0C80188
:102F000004978617970708F499C002501109061B09
:102F1000170B019311936D937C93CF010E94C516FB
:102F20008DC05B01A01AB10A4C01800E911EA091C8
:102F30005D03B0915E0340E050E0E12CF12C10976E
:102F400009F44AC0A815B905D1F56D907C90119788
:102F5000630182E0C80ED11CCA14DB0480F1A30116
:102F60004A195B096A0182E0C80ED11C1296BC9016
:102F700012971396AC91B5E0CB16D10440F0B28213
:102F8000A38351834083D9016D937C930AC00E5F64
:102F90001F4FC301800F911FF90191838083EB2D97
:102FA000FA2FE114F10431F0D7011396FC93EE935C
:102FB000129744C0F0935E03E0935D033FC08D9190
:102FC0009C9111974817590708F4AC017D0112969E
:102FD0000D90BC91A02DB3CF80915B0390915C03C9
:102FE00088159905E1F446175707C8F480911A012E
:102FF00090911B01009741F48DB79EB740911E013F
:1030000050911F01841B950BE817F907C8F4F09342
:103010005C03E0935B03F901718360830FC0CB0114
:103020000E9430167C01009759F0A801BE010E9451
:103030002718CE010E94C516C70104C0CE0102C0E8
:1030400080E090E0CDB7DEB7EEE00C94CD14FB014C
:10305000DC0102C001900D9241505040D8F7089514
:10306000FB01DC0101900D920020E1F7089511E0D1
:10307000CDE5D1E004C0FE010E942A162196CE358E
:08308000D107C9F7F894FFCF56
:10308800FFFFFFFF00E100000000000043024302D1
:103098004302430243020100000000005F03800076
:1030A80000C18081000000000000000802BA07EBA0
:1030B800021E0229021303EF020000000045021558
:1030C8000A5C024402040AE909BB09536F72546599
:1030D800532047617465776179004761746577614A
:1030E8007920696E697420737563636565646564C6
:1030F8002E00416E206576616C756174696F6E2073
:10310800696E74657276616C20686173207374618E
:10311800727465640053656E64696E6720706163DC
:103128006B65743A20000D0A0047573133004E652D
:103138007874207061636B657420696E2000416E3D
:103148002041434B20526563656976656420537559
:103158006363657366756C6C79004E756D62657234
:10316800206F662041636B205265636569766564EC
:103178003A2000525353493A2000456E64206F6646
:103188002074686520696E74657276616C005245BA
:1031980053554C5453004E756D626572206F66200E
:1031A800626561636F6E2073656E743A20004E75B8
:1031B8006D626572206F662061636B20726563655E
:1031C800697665643A2000526174696F3A20004E4E
:1031D80065787420496E74657276616C20737461C9
:1031E800727420696E203130207365636F6E64736A
:1031F800002D2D2D2D2D2D2D2D2D2D2D2D2D2D2D24
:103208002D2D2D2D2D2D2D2D2D2D2D2D2D2D2D2DE6
:103218002D2D2D2D2D2D005374617274696E67202C
:103228004C6F5261206D6F64756C65206661696CC6
:0432380065642100A8
:1070000055C000006EC000006CC000006AC00000E7
:1070100068C0000066C0000064C0000062C00000DC
:1070200060C000005EC00000DAC400005AC000006A
:1070300058C0000056C0000054C0000052C00000FC
:1070400050C0000076C000004CC000004AC00000E4
:1070500048C0000046C0000044C0000042C000001C
:1070600040C000003EC000003CC000003AC000002C
:1070700038C0000036C0000034C0000032C000003C
:1070800030C000002EC000002CC000002AC000004C
:1070900028C0000026C0000024C0000022C000005C
:1070A00020C000001EC000001CC0000011241FBE34
:1070B000CFEFDAE0DEBFCDBF11E0A0E0B1E0EEEF50
:1070C000FEE702C005900D92AA3CB107D9F711E086
:1070D000AAECB1E001C01D92A03EB107E1F781D357
:1070E0000CC78ECFF89410926F001092810010920E
:1070F00085001092840081E085BF15BE47980C94EE
:10710000000008952091D4013091D5012F5F3F4FA9
:107110003093D5012093D401932F37FF03C08EEF16
:10712000831B982F990F921710F447980895479A48
:1071300008951F920F920FB60F9211242F938F93E1
:107140009F93EF93FF93109285001092840080919B
:10715000CA019091CB01009729F001979093CB0140
:107160008093CA018091CC019091CD01009729F0C4
:1071700001979093CD018093CC01E0E0F0E0859100
:1071800094918F5F9F4F49F08091CE019091CF01F4
:1071900001969093CF018093CE01FF91EF919F9143
:1071A0008F912F910F900FBE0F901F90189584E034
:1071B0008093E9000DC08091E8008B778093E80010
:1071C00003C08EB3882351F08091E80082FFF9CF8D
:1071D0008091E80085FFEFCF8091F1000895982F0E
:1071E00083E08093E9008091E80085FD0DC08091E7
:1071F000E8008E778093E80003C08EB3882361F0A7
:107200008091E80080FFF9CF9093F10084E690E050
:107210009093CB018093CA0108954F925F926F9231
:107220007F928F929F92AF92BF92CF92DF92EF9216
:10723000FF920F931F93CF93DF9384E08093E90035
:107240008091E80082FF56C284E690E09093CD01E1
:107250008093CC01ACDF182F853481F48CE195E26A
:107260009093CF018093CE0107B600FCFDCFF99932
:10727000FECF81E180935700E89503C0843519F46F
:1072800096DF8DE00DC28C34E1F38035D1F3843785
:1072900021F484E4A4DF80E003C2813611F489E59F
:1072A000FFC18134B1F483DF182F81DF90E0880FB4
:1072B000991FAA2797FDA095BA2F312F330F20E0F1
:1072C000442737FD4095542F822B932BA42BB52BAD
:1072D000B8C1803711F483E5E3C1833549F4C0E0D8
:1072E000D1E089917CDF21E0C730D207D1F7D9C145
:1072F000863521F481E373DF80E3D2C1833731F433
:1073000087E86DDF85E96BDF8EE1CAC18536B9F4A8
:10731000E0E0F0E093E085E090935700E89507B651
:1073200000FCFDCF80935700E89507B600FCFDCF29
:10733000E058FF4FA0E7E030FA0771F7A2CF82379D
:1073400039F4E1E0F0E089E0809357008491A8C12E
:10735000863439F4E0E0F0E089E0809357008491CE
:107360009FC18E3439F4E3E0F0E089E08093570068
:10737000849196C1813539F4E2E0F0E089E08093B0
:10738000570084918DC1823631F489E528DF80E091
:1073900026DF80E885C1823419F0873609F0E5C020
:1073A0001092CF011092CE0102DF082F00DFF82EDD
:1073B000FEDE682E8554823008F071C1902F80E087
:1073C000CF2DD0E0C82BD92B10926F00173609F0C3
:1073D0004BC081E180935700E895DD24CC24C39411
:1073E0003FC0E090D001F090D1010091D201109106
:1073F000D301B6E46B16D9F4ED2DF0E0EE29FF29A8
:10740000E4918E2FECDEDD2081F082E090E0A0E0C0
:10741000B0E0E80EF91E0A1F1B1FE092D001F092A7
:10742000D1010093D2011093D301DC2418C0D801FC
:10743000C701B695A7959795879549D5D0DE82E087
:1074400090E0A0E0B0E0E80EF91E0A1F1B1FE092DA
:10745000D001F092D1010093D2011093D301219772
:10746000209709F0BECF7DC08090D0019090D101CF
:10747000A090D201B090D30196E4691609F05DC0E6
:1074800083E0F40180935700E89507B600FCFDCF38
:1074900054C0F6E46F1661F5772031F1E090D00129
:1074A000F090D1010091D2011091D30180DED82E4D
:1074B000CC24852D90E08C299D29F7010C01409268
:1074C0005700E895112482E090E0A0E0B0E0E80EDB
:1074D000F91E0A1F1B1FE092D001F092D101009308
:1074E000D2011093D30102C062DE582E742423C04F
:1074F000E090D001F090D1010091D2011091D30120
:1075000016950795F794E79452DE682FC701E7D4E4
:107510008091D0019091D101A091D201B091D3017D
:107520000296A11DB11D8093D0019093D101A0932B
:10753000D201B093D301219704C055247724442469
:107540004394209709F0A5CF96E4691641F485E0AD
:10755000F40180935700E89507B600FCFDCF8DE05D
:107560003EDE82E080936F009CC0833471F4009112
:10757000D0011091D1011BDE90E021E0F8010C0157
:1075800020935700E89511247CCE833619F5E090BE
:10759000D001F090D1010091D2011091D30107DE0A
:1075A000F701E16090E021E00C0120935700E8959D
:1075B000112482E090E0A0E0B0E0E80EF91E0A1F7E
:1075C0001B1FE092D001F092D1010093D2011093E1
:1075D000D30157CE8D3661F4E091D001F091D10105
:1075E00085E080935700E89507B600FCFDCF49CEB3
:1075F000823551F4E091D001F091D10105911491BF
:10760000812FEDDD802F4CC0843421F5E090D00136
:10761000F090D1010091D2011091D30116950795F8
:10762000F794E794C4DD682FC70159D48091D00145
:107630009091D101A091D201B091D3010296A11DE8
:10764000B11D8093D0019093D101A093D201B0934A
:10765000D30117CE843609F5E090D001F090D10126
:107660000091D2011091D301D801C701B695A79519
:10767000979587952CD4B3DD82E090E0A0E0B0E050
:10768000E80EF91E0A1F1B1FE092D001F092D101F3
:107690000093D2011093D30104C08B3111F08FE31A
:1076A0009EDD83E08093E9009091E8008091E800FE
:1076B0008E778093E80095FF04C010C08EB38823B6
:1076C000C9F08091E80080FFF9CF8091E8008E77C3
:1076D0008093E80003C08EB3882361F08091E800B6
:1076E00080FFF9CF84E08093E9008091E8008B77F8
:1076F0008093E800DF91CF911F910F91FF90EF9061
:10770000DF90CF90BF90AF909F908F907F906F90C1
:107710005F904F9008959091D801892F8F77813293
:1077200049F58091D9018032A1F0813219F5913A61
:1077300009F58091E800877F8093E8008DE091E073
:1077400067E070E0FBD18091E8008B778093E800E0
:107750000895913279F48091E800877F8093E80062
:107760008DE091E067E070E04DD28091E8008E7787
:107770008093E800089582E061EC42E0A7D083E0C6
:1077800061E842E1A3D084E060E842E19FC084B7B1
:10779000877F84BF88E10FB6F894809360001092D1
:1077A00060000FBE20E880E090E00FB6F8942093D0
:1077B0006100809361000FBE81E085BF92E095BFBC
:1077C0003F9AE1E6F0E0208310824798109289000A
:1077D0008DE78093880090936F0083E08093810011
:1077E000E6C04091000850910108109201081092E3
:1077F000000824B714BE88E10FB6F89480936000A7
:10780000109260000FBEE0E0F0E0859194918F5FF0
:107810009F4F71F020FD0BC021FD0AC0283041F4BC
:107820008091090190910A014817590709F05ADC23
:10783000AEDF78941092CF011092CE010CC0EDDC37
:1078400034D38091CE019091CF018151974210F0B5
:107850001092140157DC80911401882381F78091E4
:10786000E00081608093E0003DDC80E090E00895DE
:10787000FA01923049F0933061F09130F9F485E1EA
:1078800091E022E130E01EC087E291E02EE330E09B
:1078900019C0882329F485E691E024E030E012C085
:1078A000813029F489E691E022E230E00BC0823099
:1078B00029F487E991E028E130E004C080E090E01D
:1078C00020E030E091838083C90108958093E9002E
:1078D0008091EB0081608093EB001092ED0060934B
:1078E000EC004093ED008091EE00881F8827881FF0
:1078F00008958091D80188238CF403C08EB3882327
:10790000B1F08091E80082FFF9CF8091E8008B7799
:107910008093E80008958EB3882349F08091E800B1
:1079200080FFF9CF8091E8008E778093E80008957A
:10793000EF92FF920F931F9345D04CD008ED10E0CB
:10794000F80180818F778083808180688083808147
:107950008F7D808319BC1EBA1092D60180EEE82E6E
:10796000F12CF70180818B7F8083F8018081816019
:10797000808380E060E042E0A9DFE1EEF0E080811A
:107980008E7F8083E2EEF0E0808181608083808161
:1079900088608083F70180818E7F8083F8018081F9
:1079A000806180831F910F91FF90EF900895E7ED24
:1079B000F0E08081816080838AE482BF81E08093EF
:1079C000D701B6CFE8EDF0E080818E7F8083109202
:1079D000E20008951092DA001092E10008951F92DB
:1079E0000F920FB60F9211242F933F934F935F93F3
:1079F0006F937F938F939F93AF93BF93EF93FF9377
:107A00008091DA0080FF1AC08091D80080FF16C0F4
:107A10008091DA008E7F8093DA008091D90080FF18
:107A20000AC019BC82E089BD09B400FEFDCF81E027
:107A30008EBB3AD203C019BC1EBA36D28091E10087
:107A400080FF17C08091E20080FF13C08091E200A8
:107A50008E7F8093E2008091E20080618093E2005B
:107A60008091D80080628093D80019BC85E08EBBDD
:107A70001BD28091E10084FF2BC08091E20084FF43
:107A800027C019BC82E089BD09B400FEFDCF8091FA
:107A9000D8008F7D8093D8008091E1008F7E809305
:107AA000E1008091E2008F7E8093E2008091E2000D
:107AB00081608093E2008091D601882331F4809127
:107AC000E30087FD02C081E001C084E08EBBECD101
:107AD0008091E10083FF21C08091E20083FF1DC0FF
:107AE0008091E100877F8093E10082E08EBB10925D
:107AF000D6018091E1008E7F8093E1008091E200C9
:107B00008E7F8093E2008091E20080618093E200AA
:107B100080E060E042E0DADEC7D1FF91EF91BF91F3
:107B2000AF919F918F917F916F915F914F913F9115
:107B30002F910F900FBE0F901F9018959C014091B0
:107B4000DE015091DF014617570718F4F90190E064
:107B500044C06115710511F0AB01F8CF8091E800C8
:107B60008E778093E80040E050E0F0CF8EB388231A
:107B700009F444C0853009F443C08091E80083FFD4
:107B800002C081E008958091E80082FD31C08091BB
:107B9000E80080FF22C08091F3009091F200782FDE
:107BA00060E0292F30E0262B372B07C0819180938E
:107BB000F100415050402F5F3F4F4115510519F0E2
:107BC0002830310598F390E02830310509F491E030
:107BD0008091E8008E778093E8004115510531F6D9
:107BE000992321F605C08EB3882341F0853041F0FA
:107BF0008091E80082FFF7CF80E0089582E0089549
:107C000083E008959C016115710529F48091E800D5
:107C10008B778093E800F90126C08EB3882391F119
:107C2000853091F18091E80083FF02C081E00895E2
:107C30008091E80082FFF1CF06C08091F10081932E
:107C40006150704059F02091F3008091F200322F82
:107C500020E090E0822B932B892B79F78091E8002C
:107C60008B778093E80061157105B9F605C08EB376
:107C7000882341F0853041F08091E80080FFF7CF04
:107C800080E0089582E0089583E008950F931F93A4
:107C9000DF93CF9300D0CDB7DEB7E8EDF1E0809170
:107CA000F100819381E0E03EF807C9F734DD80916F
:107CB000E80083FFE4C08091D8019091D90195300C
:107CC00009F46DC0963040F4913081F1913070F03C
:107CD000933009F0D4C02AC0983009F4A3C0993079
:107CE00009F4B2C0963009F0CAC07CC0803809F4EB
:107CF000C6C0823809F0C3C08091DC0187708093D0
:107D0000E9008091EB001092E9002091E800277FC4
:107D10002093E80090E025E0969587952A95E1F775
:107D200081708093F1001092F10087C0882319F0D0
:107D3000823009F0A4C08F71823009F0A0C0809118
:107D4000DA01882331F52091DC01277009F497C00E
:107D50002093E9008091EB0080FF1BC0933021F459
:107D60008091EB00806213C08091EB008061809372
:107D7000EB0081E090E002C0880F991F2A95E2F79E
:107D80008093EA001092EA008091EB008860809373
:107D9000EB001092E9008091E800877F51C08823B2
:107DA00009F06DC01091DA011F770FB7F894809138
:107DB000E800877F8093E8009CDD8091E80080FFE9
:107DC000FCCF8091E3008078812B8093E300806872
:107DD0008093E300112311F482E001C083E08EBBA5
:107DE0000FBF4DC08058823008F049C08091DA0141
:107DF0009091DB016091DC01AE014F5F5F4F38DD98
:107E0000BC01009709F43BC08091E800877F809314
:107E1000E80089819A8192DE8091E8008B778093D7
:107E2000E8002DC0803859F58091E800877F809365
:107E3000E8008091D6018093F1008091E8008E7770
:107E40008093E80056DD1BC08823C9F49091DA01C5
:107E50009230A8F48091E800877F8093E8009093A7
:107E6000D60147DD8091D601882331F48091E3006B
:107E700087FD02C081E001C084E08EBB7CDC809184
:107E8000E80083FF0AC08091EB0080628093EB00E2
:107E90008091E800877F8093E8000F900F90CF914A
:107EA000DF911F910F91089508951F938EB388233A
:107EB00061F01091E9001092E9008091E80083FFE1
:107EC00001C0E4DE17701093E9001F910895F9993D
:107ED000FECF92BD81BDF89A992780B50895262FCF
:107EE000F999FECF1FBA92BD81BD20BD0FB6F8949F
:0E7EF000FA9AF99A0FBE01960895F894FFCF02
:107EFE004341544552494E41007777000800000037
:107F0E00000000080112011001020000089A230C63
:107F1E000001000201000109023E00020100803250
:107F2E0009040000010202010005240010010424CE
:107F3E0002040524060001070582030800FF090458
:107F4E000100020A000000070504021000010705E7
:107F5E00830210000104030904220341006400613E
:107F6E00006600720075006900740020004600650E
:107F7E00006100740068006500720020003300325A
:107F8E0000750034000000180341006400610066B3
:107F9E00007200750069007400200049006E0064D4
:107FAE000075007300740072006900650073002094
:0A7FBE00004C004C004300000000DE
:040000030000700089
:00000001FF
